:100000000C94200000000000000000000000000030
:1000100000000000000000000000000000000000E0
:1000200000000000000000000000000000000000D0
:1000300000000000000000000000000000000000C0
:10004000F894259A2D9A20E031E01FEF0FEF000081
:1000500000000000000000000000000000000000A0
:1000600000000000000000000000000000001A95E1
:1000700071F70A9561F72D98232739F32D9A0C947F
:02008000250059
:00000001FF
